{
  "address": "0x0D01e40Fee2BB4A7A54460d28AF43f698e6e4732",
  "abi": [
    {
      "inputs": [
        {
          "internalType": "address",
          "name": "sender",
          "type": "address"
        }
      ],
      "name": "_isHolder",
      "outputs": [
        {
          "internalType": "bool",
          "name": "",
          "type": "bool"
        }
      ],
      "stateMutability": "view",
      "type": "function"
    },
    {
      "inputs": [
        {
          "internalType": "string",
          "name": "_name",
          "type": "string"
        },
        {
          "internalType": "string",
          "name": "_description",
          "type": "string"
        },
        {
          "internalType": "string",
          "name": "_author",
          "type": "string"
        },
        {
          "internalType": "uint256",
          "name": "_electionEnd",
          "type": "uint256"
        }
      ],
      "name": "createElection",
      "outputs": [],
      "stateMutability": "nonpayable",
      "type": "function"
    },
    {
      "inputs": [
        {
          "internalType": "uint256",
          "name": "electionIndex",
          "type": "uint256"
        }
      ],
      "name": "endElection",
      "outputs": [
        {
          "internalType": "bool",
          "name": "",
          "type": "bool"
        },
        {
          "internalType": "uint256",
          "name": "",
          "type": "uint256"
        },
        {
          "internalType": "uint256",
          "name": "",
          "type": "uint256"
        }
      ],
      "stateMutability": "nonpayable",
      "type": "function"
    },
    {
      "inputs": [],
      "name": "getElectionLength",
      "outputs": [
        {
          "internalType": "uint256",
          "name": "",
          "type": "uint256"
        }
      ],
      "stateMutability": "view",
      "type": "function"
    },
    {
      "inputs": [
        {
          "internalType": "uint256",
          "name": "electionIndex",
          "type": "uint256"
        }
      ],
      "name": "getElectionMetaData",
      "outputs": [
        {
          "internalType": "string",
          "name": "",
          "type": "string"
        },
        {
          "internalType": "string",
          "name": "",
          "type": "string"
        },
        {
          "internalType": "string",
          "name": "",
          "type": "string"
        },
        {
          "internalType": "uint256",
          "name": "",
          "type": "uint256"
        },
        {
          "internalType": "bool",
          "name": "",
          "type": "bool"
        }
      ],
      "stateMutability": "view",
      "type": "function"
    },
    {
      "inputs": [
        {
          "internalType": "uint256",
          "name": "electionIndex",
          "type": "uint256"
        }
      ],
      "name": "getRemainingTime",
      "outputs": [
        {
          "internalType": "uint256",
          "name": "",
          "type": "uint256"
        }
      ],
      "stateMutability": "view",
      "type": "function"
    },
    {
      "inputs": [
        {
          "internalType": "uint256",
          "name": "electionIndex",
          "type": "uint256"
        }
      ],
      "name": "getVoteCounts",
      "outputs": [
        {
          "internalType": "uint256",
          "name": "",
          "type": "uint256"
        },
        {
          "internalType": "uint256",
          "name": "",
          "type": "uint256"
        }
      ],
      "stateMutability": "view",
      "type": "function"
    },
    {
      "inputs": [],
      "name": "initGovernance",
      "outputs": [],
      "stateMutability": "nonpayable",
      "type": "function"
    },
    {
      "inputs": [],
      "name": "isGovernanceInit",
      "outputs": [
        {
          "internalType": "bool",
          "name": "",
          "type": "bool"
        }
      ],
      "stateMutability": "view",
      "type": "function"
    },
    {
      "inputs": [
        {
          "internalType": "uint256",
          "name": "electionIndex",
          "type": "uint256"
        }
      ],
      "name": "isProposalSuccess",
      "outputs": [
        {
          "internalType": "bool",
          "name": "",
          "type": "bool"
        },
        {
          "internalType": "uint256",
          "name": "",
          "type": "uint256"
        },
        {
          "internalType": "uint256",
          "name": "",
          "type": "uint256"
        }
      ],
      "stateMutability": "view",
      "type": "function"
    },
    {
      "inputs": [
        {
          "internalType": "uint256",
          "name": "electionIndex",
          "type": "uint256"
        },
        {
          "internalType": "bool",
          "name": "approve",
          "type": "bool"
        }
      ],
      "name": "vote",
      "outputs": [
        {
          "internalType": "bool",
          "name": "",
          "type": "bool"
        }
      ],
      "stateMutability": "nonpayable",
      "type": "function"
    }
  ],
  "transactionHash": "0x138c7cbecbce8767372626ceb42084c9dca42cf105086ce6d8f091c539541025",
  "args": [],
  "solcInputHash": "07b7b6cf29429380ef804aeb33e7809b",
  "bytecode": "0x608060405234801561001057600080fd5b50611553806100206000396000f3fe608060405234801561001057600080fd5b50600436106100c95760003560e01c8063af81057e11610081578063c6e58dba1161005b578063c6e58dba146101b8578063c9d27afe146101cb578063e49907fa146101de57600080fd5b8063af81057e14610177578063b78a21751461019b578063c31238fc146101b057600080fd5b80635ee6d675116100b25780635ee6d6751461010c5780638a241f4c1461011f5780639c98bcbb1461014757600080fd5b8063181e0124146100ce5780631a513774146100f4575b600080fd5b6100e16100dc3660046110f6565b6101e6565b6040519081526020015b60405180910390f35b6100fc61029c565b60405190151581526020016100eb565b6100fc61011a36600461110f565b6102b1565b61013261012d3660046110f6565b61035a565b604080519283526020830191909152016100eb565b61015a6101553660046110f6565b610445565b6040805193151584526020840192909252908201526060016100eb565b61018a6101853660046110f6565b6105f4565b6040516100eb9594939291906111a1565b6101ae6101a9366004611297565b6108ec565b005b6101ae6109e5565b61015a6101c63660046110f6565b610a5d565b6100fc6101d9366004611327565b610c92565b6100e1610f8e565b60006101f061029c565b6040518060600160405280602681526020016114f860269139604051602001610219919061135c565b6040516020818303038152906040529061024f5760405162461bcd60e51b815260040161024691906113a8565b60405180910390fd5b50600061025a611003565b905061029542826001018581548110610275576102756113bb565b90600052602060002090600702016003015461102d90919063ffffffff16565b9392505050565b6000806102a7611003565b5460ff1692915050565b6040517f70a0823100000000000000000000000000000000000000000000000000000000815273ffffffffffffffffffffffffffffffffffffffff82166004820152600090819030906370a082319060240160206040518083038186803b15801561031b57600080fd5b505afa15801561032f573d6000803e3d6000fd5b505050506040513d601f19601f8201168201806040525081019061035391906113d1565b1192915050565b60008061036561029c565b6040518060600160405280602681526020016114f86026913960405160200161038e919061135c565b604051602081830303815290604052906103bb5760405162461bcd60e51b815260040161024691906113a8565b5060006103c6611003565b90508060010184815481106103dd576103dd6113bb565b9060005260206000209060070201600601600060011515151581526020019081526020016000205481600101858154811061041a5761041a6113bb565b6000918252602080832083805260066007909302019190910190526040902054909350915050915091565b600080600061045261029c565b6040518060600160405280602681526020016114f86026913960405160200161047b919061135c565b604051602081830303815290604052906104a85760405162461bcd60e51b815260040161024691906113a8565b5060006104b3611003565b90508060010185815481106104ca576104ca6113bb565b906000526020600020906007020160030154421161052a5760405162461bcd60e51b815260206004820181905260248201527f43616e6e6f7420656e64206265666f726520616c6c6f747465642074696d652e6044820152606401610246565b80600101858154811061053f5761053f6113bb565b600091825260209091206004600790920201015460ff16156105a35760405162461bcd60e51b815260206004820181905260248201527f456c656374696f6e2068617320616c7265616479206265656e20656e6465642e6044820152606401610246565b60018160010186815481106105ba576105ba6113bb565b60009182526020909120600790910201600401805460ff19169115159190911790556105e585610a5d565b935093509350505b9193909250565b606080606060008061060461029c565b6040518060600160405280602681526020016114f86026913960405160200161062d919061135c565b6040516020818303038152906040529061065a5760405162461bcd60e51b815260040161024691906113a8565b506000610665611003565b905080600101878154811061067c5761067c6113bb565b90600052602060002090600702016000018160010188815481106106a2576106a26113bb565b90600052602060002090600702016001018260010189815481106106c8576106c86113bb565b9060005260206000209060070201600201836001018a815481106106ee576106ee6113bb565b906000526020600020906007020160030154846001018b81548110610715576107156113bb565b906000526020600020906007020160040160009054906101000a900460ff16848054610740906113ea565b80601f016020809104026020016040519081016040528092919081815260200182805461076c906113ea565b80156107b95780601f1061078e576101008083540402835291602001916107b9565b820191906000526020600020905b81548152906001019060200180831161079c57829003601f168201915b505050505094508380546107cc906113ea565b80601f01602080910402602001604051908101604052809291908181526020018280546107f8906113ea565b80156108455780601f1061081a57610100808354040283529160200191610845565b820191906000526020600020905b81548152906001019060200180831161082857829003601f168201915b50505050509350828054610858906113ea565b80601f0160208091040260200160405190810160405280929190818152602001828054610884906113ea565b80156108d15780601f106108a6576101008083540402835291602001916108d1565b820191906000526020600020905b8154815290600101906020018083116108b457829003601f168201915b50505050509250955095509550955095505091939590929450565b6108f461029c565b6040518060600160405280602681526020016114f86026913960405160200161091d919061135c565b6040516020818303038152906040529061094a5760405162461bcd60e51b815260040161024691906113a8565b506000610955611003565b90506000610961610f8e565b60018084018054909101808255600082815292935083908110610986576109866113bb565b6000918252602091829020895160079092020192506109aa918391908a019061105d565b5085516109c0906001830190602089019061105d565b5084516109d6906002830190602088019061105d565b50600301929092555050505050565b6109ed61029c565b156040518060600160405280602681526020016114f860269139604051602001610a179190611425565b60405160208183030381529060405290610a445760405162461bcd60e51b815260040161024691906113a8565b506000610a4f611003565b805460ff1916600117905550565b6000806000610a6a61029c565b6040518060600160405280602681526020016114f860269139604051602001610a93919061135c565b60405160208183030381529060405290610ac05760405162461bcd60e51b815260040161024691906113a8565b506000610acb611003565b90506000816001018681548110610ae457610ae46113bb565b6000918252602080832083805260066007909302019190910190526040902054905080610b8e576001826001018781548110610b2257610b226113bb565b90600052602060002090600702016006016000600115151515815260200190815260200160002054836001018881548110610b5f57610b5f6113bb565b6000918252602080832083805260066007909302019190910190526040902054919650945092506105ed915050565b6021610c106064610c0a856001018a81548110610bad57610bad6113bb565b60009182526020808320838052600660079093020191909101905260409020546001870180548c908110610be357610be36113bb565b60009182526020808320600184526006600790930201919091019052604090205490611039565b90611045565b11826001018781548110610c2657610c266113bb565b90600052602060002090600702016006016000600115151515815260200190815260200160002054836001018881548110610c6357610c636113bb565b600091825260208083208380526007929092029091016006019052604090205491989097509095509350505050565b6000610c9c61029c565b6040518060600160405280602681526020016114f860269139604051602001610cc5919061135c565b60405160208183030381529060405290610cf25760405162461bcd60e51b815260040161024691906113a8565b506000610cfd611003565b9050806001018481548110610d1457610d146113bb565b9060005260206000209060070201600301544210610d9a5760405162461bcd60e51b815260206004820152602560248201527f43616e6e6f7420766f746520616674657220656c656374696f6e20686173206560448201527f6e6465642e0000000000000000000000000000000000000000000000000000006064820152608401610246565b806001018481548110610daf57610daf6113bb565b600091825260208083203384526005600790930201919091019052604090205460ff1615610e1f5760405162461bcd60e51b815260206004820152601260248201527f43616e6e6f7420766f74652074776963652e00000000000000000000000000006044820152606401610246565b610e28336102b1565b610e745760405162461bcd60e51b815260206004820152601960248201527f4d757374206265206120686f6c64657220746f20766f74652e000000000000006044820152606401610246565b6001816001018581548110610e8b57610e8b6113bb565b60009182526020808320338452600792909202909101600501905260409020805460ff191691151591909117905560018101805484919086908110610ed257610ed26113bb565b6000918252602080832033845260056007909302019190910190526040902080549115156101000261ff001990921691909117905560018181018054610f4c92919087908110610f2457610f246113bb565b6000918252602080832088151584526006600790930201919091019052604090205490611051565b816001018581548110610f6157610f616113bb565b60009182526020808320871515845260066007909302019190910190526040902055506001905092915050565b6000610f9861029c565b6040518060600160405280602681526020016114f860269139604051602001610fc1919061135c565b60405160208183030381529060405290610fee5760405162461bcd60e51b815260040161024691906113a8565b506000610ff9611003565b6001015491505090565b6000806040518060600160405280602681526020016114f860269139805160209091012092915050565b60006102958284611487565b6000610295828461149e565b600061029582846114c0565b600061029582846114df565b828054611069906113ea565b90600052602060002090601f01602090048101928261108b57600085556110d1565b82601f106110a457805160ff19168380011785556110d1565b828001600101855582156110d1579182015b828111156110d15782518255916020019190600101906110b6565b506110dd9291506110e1565b5090565b5b808211156110dd57600081556001016110e2565b60006020828403121561110857600080fd5b5035919050565b60006020828403121561112157600080fd5b813573ffffffffffffffffffffffffffffffffffffffff8116811461029557600080fd5b60005b83811015611160578181015183820152602001611148565b8381111561116f576000848401525b50505050565b6000815180845261118d816020860160208601611145565b601f01601f19169290920160200192915050565b60a0815260006111b460a0830188611175565b82810360208401526111c68188611175565b905082810360408401526111da8187611175565b606084019590955250509015156080909101529392505050565b634e487b7160e01b600052604160045260246000fd5b600082601f83011261121b57600080fd5b813567ffffffffffffffff80821115611236576112366111f4565b604051601f8301601f19908116603f0116810190828211818310171561125e5761125e6111f4565b8160405283815286602085880101111561127757600080fd5b836020870160208301376000602085830101528094505050505092915050565b600080600080608085870312156112ad57600080fd5b843567ffffffffffffffff808211156112c557600080fd5b6112d18883890161120a565b955060208701359150808211156112e757600080fd5b6112f38883890161120a565b9450604087013591508082111561130957600080fd5b506113168782880161120a565b949793965093946060013593505050565b6000806040838503121561133a57600080fd5b823591506020830135801515811461135157600080fd5b809150509250929050565b6000825161136e818460208701611145565b6101d160f51b9201918252507f554e494e495449414c495a4544000000000000000000000000000000000000006002820152600f01919050565b6020815260006102956020830184611175565b634e487b7160e01b600052603260045260246000fd5b6000602082840312156113e357600080fd5b5051919050565b600181811c908216806113fe57607f821691505b6020821081141561141f57634e487b7160e01b600052602260045260246000fd5b50919050565b60008251611437818460208701611145565b6101d160f51b9201918252507f414c52454144595f494e495449414c495a4544000000000000000000000000006002820152601501919050565b634e487b7160e01b600052601160045260246000fd5b60008282101561149957611499611471565b500390565b6000826114bb57634e487b7160e01b600052601260045260246000fd5b500490565b60008160001904831182151516156114da576114da611471565b500290565b600082198211156114f2576114f2611471565b50019056fe696f2e42756666436861696e2e54756666546f6b656e2e476f7665726e616e63654c69622e31a2646970667358221220269288419c3699936209e0427bb9cd0019c0214eb92707f91783b63f4dc8d77064736f6c63430008090033",
  "devdoc": {
    "kind": "dev",
    "methods": {},
    "version": 1
  },
  "userdoc": {
    "kind": "user",
    "methods": {},
    "version": 1
  },
  "storageLayout": {
    "storage": [],
    "types": null
  }
}