{
  "address": "0x1008c93aFB710e78D2f53bE687288EeCCBB689B1",
  "abi": [
    {
      "inputs": [],
      "name": "anyBuyBacksRequired",
      "outputs": [
        {
          "internalType": "bool",
          "name": "",
          "type": "bool"
        }
      ],
      "stateMutability": "view",
      "type": "function"
    },
    {
      "inputs": [
        {
          "internalType": "uint256",
          "name": "trackingPeriodIndex",
          "type": "uint256"
        }
      ],
      "name": "completeTrackingPeriod",
      "outputs": [],
      "stateMutability": "nonpayable",
      "type": "function"
    },
    {
      "inputs": [
        {
          "internalType": "uint256",
          "name": "baseTrackingPeriodStart",
          "type": "uint256"
        },
        {
          "internalType": "uint256",
          "name": "baseTrackingPeriodEnd",
          "type": "uint256"
        }
      ],
      "name": "createTrackingPeriod",
      "outputs": [],
      "stateMutability": "nonpayable",
      "type": "function"
    },
    {
      "inputs": [],
      "name": "getAmountOfEpochsLowerLimit",
      "outputs": [
        {
          "internalType": "uint256",
          "name": "",
          "type": "uint256"
        }
      ],
      "stateMutability": "view",
      "type": "function"
    },
    {
      "inputs": [],
      "name": "getCurrentTrackingPeriodIndex",
      "outputs": [
        {
          "internalType": "uint256",
          "name": "",
          "type": "uint256"
        }
      ],
      "stateMutability": "view",
      "type": "function"
    },
    {
      "inputs": [],
      "name": "getDaysInEpoch",
      "outputs": [
        {
          "internalType": "uint256",
          "name": "",
          "type": "uint256"
        }
      ],
      "stateMutability": "view",
      "type": "function"
    },
    {
      "inputs": [
        {
          "internalType": "uint256",
          "name": "trackingPeriod",
          "type": "uint256"
        }
      ],
      "name": "getIsBuyBackFulfilled",
      "outputs": [
        {
          "internalType": "bool",
          "name": "",
          "type": "bool"
        }
      ],
      "stateMutability": "view",
      "type": "function"
    },
    {
      "inputs": [
        {
          "internalType": "uint256",
          "name": "trackingPeriodIndex",
          "type": "uint256"
        }
      ],
      "name": "getLastBuyBackChoiceResults",
      "outputs": [
        {
          "internalType": "uint256",
          "name": "",
          "type": "uint256"
        },
        {
          "internalType": "uint256",
          "name": "",
          "type": "uint256"
        }
      ],
      "stateMutability": "view",
      "type": "function"
    },
    {
      "inputs": [],
      "name": "getPrice",
      "outputs": [
        {
          "internalType": "uint256",
          "name": "",
          "type": "uint256"
        }
      ],
      "stateMutability": "view",
      "type": "function"
    },
    {
      "inputs": [],
      "name": "getPriceConsumer",
      "outputs": [
        {
          "internalType": "enum MarketTrendLib.PriceConsumer",
          "name": "",
          "type": "uint8"
        }
      ],
      "stateMutability": "view",
      "type": "function"
    },
    {
      "inputs": [],
      "name": "getPriceDataEntriesLength",
      "outputs": [
        {
          "internalType": "uint256",
          "name": "",
          "type": "uint256"
        }
      ],
      "stateMutability": "view",
      "type": "function"
    },
    {
      "inputs": [
        {
          "internalType": "uint256",
          "name": "priceDataIndex",
          "type": "uint256"
        }
      ],
      "name": "getPriceFromDataEntry",
      "outputs": [
        {
          "internalType": "uint256",
          "name": "",
          "type": "uint256"
        }
      ],
      "stateMutability": "view",
      "type": "function"
    },
    {
      "inputs": [
        {
          "internalType": "enum MarketTrendLib.PriceConsumer",
          "name": "priceConsumer",
          "type": "uint8"
        }
      ],
      "name": "getPriceFromPriceConsumer",
      "outputs": [
        {
          "internalType": "uint256",
          "name": "",
          "type": "uint256"
        }
      ],
      "stateMutability": "view",
      "type": "function"
    },
    {
      "inputs": [
        {
          "internalType": "uint256",
          "name": "_rangeStart",
          "type": "uint256"
        },
        {
          "internalType": "uint256",
          "name": "_rangeEnd",
          "type": "uint256"
        }
      ],
      "name": "getPseudoRandomNumber",
      "outputs": [
        {
          "internalType": "uint256",
          "name": "",
          "type": "uint256"
        }
      ],
      "stateMutability": "view",
      "type": "function"
    },
    {
      "inputs": [
        {
          "internalType": "uint256",
          "name": "lastEntryIndex",
          "type": "uint256"
        }
      ],
      "name": "getStartingEntryIndex",
      "outputs": [
        {
          "internalType": "uint256",
          "name": "",
          "type": "uint256"
        }
      ],
      "stateMutability": "view",
      "type": "function"
    },
    {
      "inputs": [
        {
          "internalType": "enum MarketTrendLib.PriceConsumer",
          "name": "priceConsumer",
          "type": "uint8"
        },
        {
          "internalType": "bool",
          "name": "createInitialTrackingPeriod",
          "type": "bool"
        }
      ],
      "name": "initMarketTrend",
      "outputs": [],
      "stateMutability": "nonpayable",
      "type": "function"
    },
    {
      "inputs": [],
      "name": "isMarketTrendInit",
      "outputs": [
        {
          "internalType": "bool",
          "name": "",
          "type": "bool"
        }
      ],
      "stateMutability": "view",
      "type": "function"
    },
    {
      "inputs": [
        {
          "internalType": "uint256",
          "name": "oldPrice",
          "type": "uint256"
        },
        {
          "internalType": "uint256",
          "name": "newPrice",
          "type": "uint256"
        }
      ],
      "name": "isNegativeOrZeroPriceChange",
      "outputs": [
        {
          "internalType": "bool",
          "name": "",
          "type": "bool"
        }
      ],
      "stateMutability": "pure",
      "type": "function"
    },
    {
      "inputs": [],
      "name": "processCurrentMarketTrend",
      "outputs": [],
      "stateMutability": "nonpayable",
      "type": "function"
    },
    {
      "inputs": [
        {
          "internalType": "uint256",
          "name": "timestamp",
          "type": "uint256"
        },
        {
          "internalType": "uint256",
          "name": "currentPrice",
          "type": "uint256"
        }
      ],
      "name": "processMarketTrend",
      "outputs": [],
      "stateMutability": "nonpayable",
      "type": "function"
    },
    {
      "inputs": [
        {
          "internalType": "uint256",
          "name": "currentPrice",
          "type": "uint256"
        }
      ],
      "name": "pushPriceData",
      "outputs": [],
      "stateMutability": "nonpayable",
      "type": "function"
    },
    {
      "inputs": [
        {
          "internalType": "uint256",
          "name": "amountOfEpochsLowerLimit",
          "type": "uint256"
        }
      ],
      "name": "setAmountOfEpochsLowerLimit",
      "outputs": [],
      "stateMutability": "nonpayable",
      "type": "function"
    },
    {
      "inputs": [],
      "name": "setAmountOfEpochsUpperLimit",
      "outputs": [
        {
          "internalType": "uint256",
          "name": "",
          "type": "uint256"
        }
      ],
      "stateMutability": "view",
      "type": "function"
    },
    {
      "inputs": [
        {
          "internalType": "uint256",
          "name": "_amountOfEpochsUpperLimit",
          "type": "uint256"
        }
      ],
      "name": "setAmountOfEpochsUpperLimit",
      "outputs": [],
      "stateMutability": "nonpayable",
      "type": "function"
    },
    {
      "inputs": [
        {
          "internalType": "uint256",
          "name": "_daysInEpoch",
          "type": "uint256"
        }
      ],
      "name": "setDaysInEpoch",
      "outputs": [],
      "stateMutability": "nonpayable",
      "type": "function"
    },
    {
      "inputs": [
        {
          "internalType": "uint256",
          "name": "trackingPeriod",
          "type": "uint256"
        },
        {
          "internalType": "bool",
          "name": "fulfilled",
          "type": "bool"
        }
      ],
      "name": "setIsBuyBackFulfilled",
      "outputs": [],
      "stateMutability": "nonpayable",
      "type": "function"
    },
    {
      "inputs": [
        {
          "internalType": "enum MarketTrendLib.PriceConsumer",
          "name": "priceConsumer",
          "type": "uint8"
        }
      ],
      "name": "setPriceConsumer",
      "outputs": [],
      "stateMutability": "nonpayable",
      "type": "function"
    }
  ],
  "transactionHash": "0xc4bb0247433918e2e5693dd23997abbe47ea02aa95e3b79866aea6cfbb8145cf",
  "args": [],
  "solcInputHash": "623637cf15ed6b339e4379a041929b17",
  "bytecode": "0x608060405234801561001057600080fd5b50611c0a806100206000396000f3fe608060405234801561001057600080fd5b50600436106101b95760003560e01c806398d5fdca116100f9578063bd753bdb11610097578063e200fe8311610071578063e200fe8314610342578063e5bec1ca14610355578063f1d9903614610368578063f1def97214610389576101b9565b8063bd753bdb14610307578063cbd256601461031a578063ce26e9ef1461032d576101b9565b8063a142b8c6116100d3578063a142b8c6146102d1578063a5c7a3a0146102e4578063ae1dd437146102f7578063aeb72086146102ff576101b9565b806398d5fdca146102ae5780639e66a310146102b65780639f6dc015146102c9576101b9565b8063510dd886116101665780636f8d3550116101405780636f8d35501461026d578063701edc9014610280578063843f73b31461029357806395f7c5c5146102a6576101b9565b8063510dd8861461023f57806360d77a2e1461024757806366ca9ec01461025a576101b9565b806331eba14b1161019757806331eba14b146102045780633ca32cb3146102175780634828bf1d1461022c576101b9565b80630671d553146101be57806315b0c73d146101dc57806323f763d0146101f1575b600080fd5b6101c6610391565b6040516101d39190611b66565b60405180910390f35b6101e4610410565b6040516101d391906119fd565b6101e46101ff36600461191c565b610425565b6101c661021236600461191c565b61042a565b61022a6102253660046118ca565b6104cf565b005b6101c661023a3660046118ca565b610575565b6101c66105ef565b61022a6102553660046118ca565b610668565b61022a610268366004611877565b61078b565b61022a61027b36600461191c565b61081a565b6101e461028e3660046118ca565b610a25565b61022a6102a13660046118fa565b610ac5565b6101c6610b6d565b6101c6610be2565b6101c66102c4366004611877565b610d52565b6101e4610ebe565b61022a6102df366004611898565b611026565b61022a6102f23660046118ca565b61112b565b6101c661119e565b6101c6611213565b61022a6103153660046118ca565b611288565b6101c66103283660046118ca565b6112fb565b610335611391565b6040516101d39190611a08565b61022a6103503660046118ca565b61140b565b61022a61036336600461191c565b61147e565b61037b6103763660046118ca565b611610565b6040516101d3929190611b6f565b61022a61174b565b600061039b610410565b604051806060016040528060278152602001611bae602791396040516020016103c4919061193d565b604051602081830303815290604052906103fa5760405162461bcd60e51b81526004016103f19190611a1c565b60405180910390fd5b5060006104056117b8565b600501549150505b90565b60008061041b6117b8565b5460ff1691505090565b111590565b6000610434610410565b604051806060016040528060278152602001611bae6027913960405160200161045d919061193d565b6040516020818303038152906040529061048a5760405162461bcd60e51b81526004016103f19190611a1c565b506000824244336040516020016104a3939291906119d5565b6040516020818303038152906040528051906020012060001c816104c357fe5b06840191505092915050565b6104d7610410565b604051806060016040528060278152602001611bae60279139604051602001610500919061193d565b6040516020818303038152906040529061052d5760405162461bcd60e51b81526004016103f19190611a1c565b5060006105386117b8565b90506105426117e2565b91825242602080840191825260029283018054600181810183556000928352929091209451930290930191825551910155565b600061057f610410565b604051806060016040528060278152602001611bae602791396040516020016105a8919061193d565b604051602081830303815290604052906105d55760405162461bcd60e51b81526004016103f19190611a1c565b5060006105e06117b8565b6003015483039150505b919050565b60006105f9610410565b604051806060016040528060278152602001611bae60279139604051602001610622919061193d565b6040516020818303038152906040529061064f5760405162461bcd60e51b81526004016103f19190611a1c565b50600061065a6117b8565b600101546000190191505090565b610670610410565b604051806060016040528060278152602001611bae60279139604051602001610699919061193d565b604051602081830303815290604052906106c65760405162461bcd60e51b81526004016103f19190611a1c565b5060006106d16117b8565b90508060010182815481106106e257fe5b600091825260209091206002600790920201015460ff166107155760405162461bcd60e51b81526004016103f190611b09565b600081600101838154811061072657fe5b906000526020600020906007020160020160006101000a81548160ff021916908315150217905550600181600101838154811061075f57fe5b906000526020600020906007020160020160016101000a81548160ff0219169083151502179055505050565b610793610410565b604051806060016040528060278152602001611bae602791396040516020016107bc919061193d565b604051602081830303815290604052906107e95760405162461bcd60e51b81526004016103f19190611a1c565b5060006107f46117b8565b80549091508290829061ff00191661010083600181111561081157fe5b02179055505050565b610822610410565b604051806060016040528060278152602001611bae6027913960405160200161084b919061193d565b604051602081830303815290604052906108785760405162461bcd60e51b81526004016103f19190611a1c565b5060006108836117b8565b600181015490915015806108bf575060018101805460001981019081106108a657fe5b600091825260209091206002600790920201015460ff16155b6108db5760405162461bcd60e51b81526004016103f190611aac565b6108e36117e2565b6108eb610be2565b81526020808201858152600280850180546001818101835560009283529490912085519190920290910190815590519101556109256117fc565b84815260208101849052600160408201819052835461010080840192910460ff169081111561095057fe5b9081600181111561095d57fe5b90525060068084015460a083019081526001808601805480830182556000918252602091829020865160079092020190815590850151818301556040850151600282018054606088015160808901511515620100000262ff00001991151561010090810261ff001996151560ff1995861617969096169590951791909116179091559351600383015560c0860151600483015560e086015160058301558501519381018054869592949293919216908381811115610a1757fe5b021790555050505050505050565b6000610a2f610410565b604051806060016040528060278152602001611bae60279139604051602001610a58919061193d565b60405160208183030381529060405290610a855760405162461bcd60e51b81526004016103f19190611a1c565b506000610a906117b8565b9050806001018381548110610aa157fe5b600091825260209091206007909102016002015462010000900460ff169392505050565b610acd610410565b604051806060016040528060278152602001611bae60279139604051602001610af6919061193d565b60405160208183030381529060405290610b235760405162461bcd60e51b81526004016103f19190611a1c565b506000610b2e6117b8565b905081816001018481548110610b4057fe5b906000526020600020906007020160020160026101000a81548160ff021916908315150217905550505050565b6000610b77610410565b604051806060016040528060278152602001611bae60279139604051602001610ba0919061193d565b60405160208183030381529060405290610bcd5760405162461bcd60e51b81526004016103f19190611a1c565b506000610bd86117b8565b6002015491505090565b6000610bec610410565b604051806060016040528060278152602001611bae60279139604051602001610c15919061193d565b60405160208183030381529060405290610c425760405162461bcd60e51b81526004016103f19190611a1c565b506000610c4d6117b8565b600181015490915015610d37576000610c646105ef565b90506000826001018281548110610c7757fe5b6000918252602091829020604080516101208101825260079093029091018054835260018082015494840194909452600281015460ff80821615159385019390935261010080820484161515606086015262010000909104831615156080850152600382015460a0850152600482015460c0850152600582015460e0850152600682015493949193908501921690811115610d0e57fe5b6001811115610d1957fe5b815250509050610d2d816101000151610d52565b935050505061040d565b8054610d4a90610100900460ff16610d52565b91505061040d565b6000610d5c610410565b604051806060016040528060278152602001611bae60279139604051602001610d85919061193d565b60405160208183030381529060405290610db25760405162461bcd60e51b81526004016103f19190611a1c565b506000826001811115610dc157fe5b1415610e4c573073ffffffffffffffffffffffffffffffffffffffff1663be790b326040518163ffffffff1660e01b815260040160206040518083038186803b158015610e0d57600080fd5b505afa158015610e21573d6000803e3d6000fd5b505050506040513d601f19601f82011682018060405250810190610e4591906118e2565b90506105ea565b6001826001811115610e5a57fe5b1415610ea6573073ffffffffffffffffffffffffffffffffffffffff16632b6e19236040518163ffffffff1660e01b815260040160206040518083038186803b158015610e0d57600080fd5b60405162461bcd60e51b81526004016103f190611a4f565b6000610ec8610410565b604051806060016040528060278152602001611bae60279139604051602001610ef1919061193d565b60405160208183030381529060405290610f1e5760405162461bcd60e51b81526004016103f19190611a1c565b506000610f296117b8565b90506000805b600183015481101561101f576000836001018281548110610f4c57fe5b6000918252602091829020604080516101208101825260079093029091018054835260018082015494840194909452600281015460ff80821615159385019390935261010080820484161515606086015262010000909104831615156080850152600382015460a0850152600482015460c0850152600582015460e0850152600682015493949193908501921690811115610fe357fe5b6001811115610fee57fe5b8152505090508060600151801561100757508060800151155b1561101657600192505061101f565b50600101610f2f565b5091505090565b61102e610410565b15604051806060016040528060278152602001611bae602791396040516020016110589190611989565b604051602081830303815290604052906110855760405162461bcd60e51b81526004016103f19190611a1c565b5060006110906117b8565b600760038201819055600480830155600a60058301819055600683015560019082018190556064600883015581549192508491839161ff0019909116906101009084908111156110dc57fe5b0217905550811561111c5760006110fb8260040154836005015461042a565b9050600082600301548202620151800242019050611119428261081a565b50505b805460ff191660011790555050565b611133610410565b604051806060016040528060278152602001611bae6027913960405160200161115c919061193d565b604051602081830303815290604052906111895760405162461bcd60e51b81526004016103f19190611a1c565b5060006111946117b8565b6004019190915550565b60006111a8610410565b604051806060016040528060278152602001611bae602791396040516020016111d1919061193d565b604051602081830303815290604052906111fe5760405162461bcd60e51b81526004016103f19190611a1c565b5060006112096117b8565b6003015491505090565b600061121d610410565b604051806060016040528060278152602001611bae60279139604051602001611246919061193d565b604051602081830303815290604052906112735760405162461bcd60e51b81526004016103f19190611a1c565b50600061127e6117b8565b6004015491505090565b611290610410565b604051806060016040528060278152602001611bae602791396040516020016112b9919061193d565b604051602081830303815290604052906112e65760405162461bcd60e51b81526004016103f19190611a1c565b5060006112f16117b8565b6005019190915550565b6000611305610410565b604051806060016040528060278152602001611bae6027913960405160200161132e919061193d565b6040516020818303038152906040529061135b5760405162461bcd60e51b81526004016103f19190611a1c565b5060006113666117b8565b905080600201838154811061137757fe5b906000526020600020906002020160000154915050919050565b600061139b610410565b604051806060016040528060278152602001611bae602791396040516020016113c4919061193d565b604051602081830303815290604052906113f15760405162461bcd60e51b81526004016103f19190611a1c565b5060006113fc6117b8565b54610100900460ff1692915050565b611413610410565b604051806060016040528060278152602001611bae6027913960405160200161143c919061193d565b604051602081830303815290604052906114695760405162461bcd60e51b81526004016103f19190611a1c565b5060006114746117b8565b6003019190915550565b611486610410565b604051806060016040528060278152602001611bae602791396040516020016114af919061193d565b604051602081830303815290604052906114dc5760405162461bcd60e51b81526004016103f19190611a1c565b5060006114e76117b8565b905060006114f36105ef565b9050600082600101828154811061150657fe5b9060005260206000209060070201905061151f846104cf565b6000600161152b610b6d565b039050600061153982610575565b9050826001015487108061154b575060005b1561155a57505050505061160c565b6000611565826112fb565b90506115718188610425565b6115805750505050505061160c565b60006115948760070154886008015461042a565b600386015460048701819055600587018290559091508110156115f3576115ba86610668565b60006115ce8860040154896005015461042a565b90506000886003015482026201518002420190506115ec428261081a565b5050611604565b600687015460038601805490910190555b505050505050505b5050565b60008061161b610410565b604051806060016040528060278152602001611bae60279139604051602001611644919061193d565b604051602081830303815290604052906116715760405162461bcd60e51b81526004016103f19190611a1c565b50600061167c6117b8565b9050600081600101858154811061168f57fe5b6000918252602091829020604080516101208101825260079093029091018054835260018082015494840194909452600281015460ff80821615159385019390935261010080820484161515606086015262010000909104831615156080850152600382015460a0850152600482015460c0850152600582015460e085015260068201549394919390850192169081111561172657fe5b600181111561173157fe5b90525060c081015160e09091015190945092505050915091565b611753610410565b604051806060016040528060278152602001611bae6027913960405160200161177c919061193d565b604051602081830303815290604052906117a95760405162461bcd60e51b81526004016103f19190611a1c565b506117b642610363610be2565b565b600080604051806060016040528060278152602001611bae60279139805160209091012092915050565b604051806040016040528060008152602001600081525090565b60405180610120016040528060008152602001600081526020016000151581526020016000151581526020016000151581526020016000815260200160008152602001600081526020016000600181111561185357fe5b905290565b803580151581146105ea57600080fd5b8035600281106105ea57600080fd5b600060208284031215611888578081fd5b61189182611868565b9392505050565b600080604083850312156118aa578081fd5b6118b383611868565b91506118c160208401611858565b90509250929050565b6000602082840312156118db578081fd5b5035919050565b6000602082840312156118f3578081fd5b5051919050565b6000806040838503121561190c578182fd5b823591506118c160208401611858565b6000806040838503121561192e578182fd5b50508035926020909101359150565b6000825161194f818460208701611b7d565b6101d160f51b9201918252507f554e494e495449414c495a4544000000000000000000000000000000000000006002820152600f01919050565b6000825161199b818460208701611b7d565b6101d160f51b9201918252507f414c52454144595f494e495449414c495a4544000000000000000000000000006002820152601501919050565b928352602083019190915260601b6bffffffffffffffffffffffff1916604082015260540190565b901515815260200190565b6020810160028310611a1657fe5b91905290565b6000602082528251806020840152611a3b816040850160208701611b7d565b601f01601f19169190910160400192915050565b6020808252602d908201527f412076616c696420707269636520636f6e73756d657220636c6173732077617360408201527f206e6f742070726f766964656400000000000000000000000000000000000000606082015260800190565b60208082526029908201527f43616e206f6e6c792068617665206f6e652061637469766520747261636b696e60408201527f6720706572696f642e0000000000000000000000000000000000000000000000606082015260800190565b6020808252602c908201527f43616e6e6f7420636f6d706c65746520616e20696e616374697665207472616360408201527f6b696e6720706572696f642e0000000000000000000000000000000000000000606082015260800190565b90815260200190565b918252602082015260400190565b60005b83811015611b98578181015183820152602001611b80565b83811115611ba7576000848401525b5050505056fe696f2e42756666436861696e2e54756666546f6b656e2e4d61726b65745472656e644c69622e31a2646970667358221220a1231ef5c4d8e37ce9269b76589c1318e29ca486e1f927d108bd9bfdf85c490a64736f6c63430007060033",
  "devdoc": {
    "kind": "dev",
    "methods": {},
    "version": 1
  },
  "userdoc": {
    "kind": "user",
    "methods": {},
    "version": 1
  },
  "storageLayout": {
    "storage": [],
    "types": null
  }
}